:1000000033C0000041C000003FC000003DC0000000
:100010003BC0000039C0000037C0000035C0000000
:1000200033C0000031C000002FC000002DC0000010
:100030002BC0000029C0000027C0000025C0000020
:1000400023C0000021C000001FC000001DC0000030
:100050001BC0000019C0000017C0000015C0000040
:1000600013C0000011C0000011241FBECFEFD8E064
:10007000DEBFCDBF11E0A0E0B1E001C01D92A03015
:10008000B107E1F75ED094C0BBCFEAE7F0E0808132
:1000900080688083089590917C00907F90937C008D
:1000A00090917C00982B90937C0090917E00982BEF
:1000B00090937E0080917A00806480937A00809192
:1000C0007A0086FDFCCF2091780030917900C9013B
:1000D000089584B1866084B98FEF90E09093890091
:1000E000809388008FEF92E090938B0080938A003A
:1000F000A1E8B0E08C9181608C93E0E8F0E0808131
:10010000806A80838081836080838C9188608C93F7
:1001100008951092C50080E18093C400E0ECF0E007
:1001200080818260808386E08093C20088E1809332
:10013000C10008958091C00087FFFCCF8091C60068
:100140000895EF92FF920F931F93DF93CF93CDB754
:10015000DEB761970FB6F894DEBF0FBECDBFD9DF13
:10016000B8DF93DF90E07E010894E11CF11C0BC026
:10017000998BE0DF9989F701E90FF11D808389816F
:100180008E3709F49F5F903198F3198281E083DF05
:1001900090938B0080938A001E8500E08F859801E4
:1001A000280F311D309389002093880090E0E0CF24
:0401B000F894FFCFF1
:00000001FF
